:030000000209658D
:0C096500787FE4F6D8FD7581140209AC1F
:0A0D3100EF1F70011EEF4E70F72255
:100D1A00AD07AC06ED4C600E7F707E00120D31ED12
:070D2A001D70F11C80EE2298
:080CAE0054F0F580C280C28100
:100CB600C282D2827F647E00120D31C2827F0A7E9A
:040CC60000020D31EA
:100AB100E4F580C280C281758030120CB67F647EFD
:100AC10000120D1A758030120CB67F017E00120DD6
:100AD1001A758030120CB67F017E00120D1A7580D6
:100AE10020120CB67FC87E00120D317F28120CE651
:0F0AF1007F0E120CE67F01120CE67F80020CE6EE
:050D3B007F01020CE63F
:050D40007F80020CE6BB
:050D45007FC0020CE676
:100CE6008F11E511120CAE7FF47E01120D31E51164
:0B0CF600C4120CAE7FF47E01020D3131
:050C0D00540F2430FF2C
:100C12008F14E51454F0F580D280C281120CB67F95
:100C2200F47E01120D31E514C454F0F580D280C275
:0B0C320081120CB67FF47E01020D3130
:100C6C008B118A128913AB11AA12A913120D0160F0
:100C7C00130513E5137002051214F9120D01FF127E
:050C8C000C1280E222C1
:100B4F008F118D128B13E5117804A2E713D8FB12C6
:100B5F000C0DE511120C0D7F3A120C12E5127804F0
:100B6F00A2E713D8FB120C0DE512120C0D7F3A12EF
:100B7F000C12E5137804A2E713D8FB120C0DE51342
:080B8F00540F2430FF020C1288
:100C3D00416C61726D2D3E200020504D0020414DC4
:100C4D000053657420436C6F636B2054696D6500B0
:0F0C5D0053657420416C61726D2054696D6500A0
:100CCA00010912010B00010D00010F00010C0001C6
:0B0CDA000812010A00011000010E00CA
:03000B00020B974E
:100B9700C0E0C0F0C083C082C0D075D000C000C024
:100BA70001C002C003C004C005C006C007050CE5AC
:100BB7000CB40E06750C001209F1D007D006D0054B
:100BC700D004D003D002D001D000D0D0D082D083BF
:050BD700D0F0D0E03277
:100A5B00E58954F04401F589D2A9C28CD2AFC2A367
:100A6B00120AB1120D40120D3B120800D28C120863
:100A7B00B3120D407BFF7A0C793D120C6C120B00FC
:100A8B00120D45120C91120BDCBF6F031208B3E56C
:100A9B0009B5080EE50BB50A09E50FB51004D2A38D
:060AAB0080CFC2A380CB46
:1009F100050DE50D540FD3648094894006740625D6
:100A01000DF50DD3E50D648094D94005E4F50D0590
:100A11000BE50B540FD36480948940067406250BB3
:100A2100F50BD3E50B648094D94005E4F50B05097A
:100A3100E509540FD364809489400674062509F5AD
:100A410009D3E50964809492400F750901E50F709F
:0A0A5100047F0180027F008F0F2256
:100C9100AB0DAD0BAF09120B4FE50F7BFF60067A71
:0D0CA1000C794680047A0C794A120C6C2202
:100B0000E5087804A2E713D8FB540F2430FF120C39
:100B100012E508540F2430FF120C127F3A120C1207
:100B2000E50A7804A2E713D8FB540F2430FF120C17
:100B300012E50A540F2430FF120C12E5107BFF60FF
:0F0B4000067A0C794680047A0C794A120C6C22E2
:100BDC0020A0147F327E00120D1A20A00A20A0043F
:100BEC00D2A080F97F6F2220A1147F327E00120DDB
:100BFC001A20A10C20A104D2A180F97F75227F00BC
:010C0C0022C5
:10080000120D3B120D407BFF7A0C794E120C6CE4FA
:10081000F50E120D45120C91E50E7007120BDC8FD0
:100820000E80F5E50EB4751EE50964126004050935
:100830008003750901E509540FD36480948940064B
:1008400074062509F509E50EB46FC4E4F50E120D22
:1008500045120C91E50E7007120BDC8F0E80F5E54A
:100860000EB4751EE50B64596004050B8003E4F5B6
:100870000BE50B540FD36480948940067406250B56
:10088000F50BE50EB46FC4E4F50E120D45120C9194
:10089000E50E7007120BDC8F0E80F5E50E646F60BD
:1008A0000CE50F70047F0180027F008F0FE50EB40E
:0308B0006FD522DF
:1008B300120D3B120D407BFF7A0C795D120C6CE438
:1008C300F50E120D45120B00E50E7007120BDC8FAF
:1008D3000E80F5E50EB4751EE50864126004050884
:1008E3008003750801E508540FD36480948940069A
:1008F30074062508F508E50EB46FC4E4F50E120D71
:1009030045120B00E50E7007120BDC8F0E80F5E528
:100913000EB4751DE50AB45905E4F50A8002050A0B
:10092300E50A540FD36480948940067406250AF5BA
:100933000AE50EB46FC5E4F50E120D45120B00E582
:100943000E7007120BDC8F0E80F5E50E646F600CE2
:10095300E51070047F0180027F008F10E50EB46FF5
:02096300D5229B
:10097100020A5BE493A3F8E493A34003F68001F237
:1009810008DFF48029E493A3F85407240CC8C33387
:10099100C4540F4420C8834004F456800146F6DF56
:1009A100E4800B0102040810204080900CCAE47E10
:1009B100019360BCA3FF543F30E509541FFEE4934B
:1009C100A360010ECF54C025E060A840B8E493A312
:1009D100FAE493A3F8E493A3C8C582C8CAC583CA3D
:1009E100F0A3C8C582C8CAC583CADFE9DEE780BEF5
:010CE500000E
:100D0100BB010689828A83E0225002E722BBFE02F0
:090D1100E32289828A83E4932223
:00000001FF
